{
  "address": "0xe7f1725E7734CE288F8367e1Bb143E90bb3F0512",
  "abi": [
    {
      "inputs": [],
      "stateMutability": "nonpayable",
      "type": "constructor"
    },
    {
      "inputs": [
        {
          "internalType": "uint256",
          "name": "",
          "type": "uint256"
        }
      ],
      "name": "allItems",
      "outputs": [
        {
          "internalType": "address",
          "name": "deployerAddress",
          "type": "address"
        },
        {
          "internalType": "string",
          "name": "name",
          "type": "string"
        },
        {
          "internalType": "string",
          "name": "category",
          "type": "string"
        },
        {
          "internalType": "string",
          "name": "image",
          "type": "string"
        },
        {
          "internalType": "uint256",
          "name": "cost",
          "type": "uint256"
        }
      ],
      "stateMutability": "view",
      "type": "function"
    },
    {
      "inputs": [
        {
          "internalType": "string",
          "name": "name",
          "type": "string"
        },
        {
          "internalType": "address",
          "name": "reciverAdress",
          "type": "address"
        }
      ],
      "name": "buy",
      "outputs": [],
      "stateMutability": "payable",
      "type": "function"
    },
    {
      "inputs": [],
      "name": "getAllItems",
      "outputs": [
        {
          "components": [
            {
              "internalType": "address",
              "name": "deployerAddress",
              "type": "address"
            },
            {
              "internalType": "string",
              "name": "name",
              "type": "string"
            },
            {
              "internalType": "string",
              "name": "category",
              "type": "string"
            },
            {
              "internalType": "string",
              "name": "image",
              "type": "string"
            },
            {
              "internalType": "uint256",
              "name": "cost",
              "type": "uint256"
            }
          ],
          "internalType": "struct E_commerce.Item[]",
          "name": "",
          "type": "tuple[]"
        }
      ],
      "stateMutability": "view",
      "type": "function"
    },
    {
      "inputs": [
        {
          "internalType": "address",
          "name": "user",
          "type": "address"
        }
      ],
      "name": "getUserItemList",
      "outputs": [
        {
          "components": [
            {
              "internalType": "address",
              "name": "deployerAddress",
              "type": "address"
            },
            {
              "internalType": "string",
              "name": "name",
              "type": "string"
            },
            {
              "internalType": "string",
              "name": "category",
              "type": "string"
            },
            {
              "internalType": "string",
              "name": "image",
              "type": "string"
            },
            {
              "internalType": "uint256",
              "name": "cost",
              "type": "uint256"
            }
          ],
          "internalType": "struct E_commerce.Item[]",
          "name": "",
          "type": "tuple[]"
        }
      ],
      "stateMutability": "view",
      "type": "function"
    },
    {
      "inputs": [
        {
          "internalType": "address",
          "name": "user",
          "type": "address"
        }
      ],
      "name": "getUserbroughtItems",
      "outputs": [
        {
          "components": [
            {
              "internalType": "address",
              "name": "deployerAddress",
              "type": "address"
            },
            {
              "internalType": "string",
              "name": "name",
              "type": "string"
            },
            {
              "internalType": "string",
              "name": "category",
              "type": "string"
            },
            {
              "internalType": "string",
              "name": "image",
              "type": "string"
            },
            {
              "internalType": "uint256",
              "name": "cost",
              "type": "uint256"
            }
          ],
          "internalType": "struct E_commerce.Item[]",
          "name": "",
          "type": "tuple[]"
        }
      ],
      "stateMutability": "view",
      "type": "function"
    },
    {
      "inputs": [
        {
          "internalType": "string",
          "name": "",
          "type": "string"
        }
      ],
      "name": "items",
      "outputs": [
        {
          "internalType": "address",
          "name": "deployerAddress",
          "type": "address"
        },
        {
          "internalType": "string",
          "name": "name",
          "type": "string"
        },
        {
          "internalType": "string",
          "name": "category",
          "type": "string"
        },
        {
          "internalType": "string",
          "name": "image",
          "type": "string"
        },
        {
          "internalType": "uint256",
          "name": "cost",
          "type": "uint256"
        }
      ],
      "stateMutability": "view",
      "type": "function"
    },
    {
      "inputs": [
        {
          "internalType": "string",
          "name": "_name",
          "type": "string"
        },
        {
          "internalType": "string",
          "name": "_category",
          "type": "string"
        },
        {
          "internalType": "string",
          "name": "_image",
          "type": "string"
        },
        {
          "internalType": "uint256",
          "name": "_cost",
          "type": "uint256"
        }
      ],
      "name": "list",
      "outputs": [],
      "stateMutability": "nonpayable",
      "type": "function"
    },
    {
      "inputs": [
        {
          "internalType": "address",
          "name": "",
          "type": "address"
        }
      ],
      "name": "orderCount",
      "outputs": [
        {
          "internalType": "uint256",
          "name": "",
          "type": "uint256"
        }
      ],
      "stateMutability": "view",
      "type": "function"
    },
    {
      "inputs": [],
      "name": "owner",
      "outputs": [
        {
          "internalType": "address",
          "name": "",
          "type": "address"
        }
      ],
      "stateMutability": "view",
      "type": "function"
    }
  ],
  "transactionHash": "0x7356680f2745830caf54fb93d3989ce36cd6c526b194c6c566f642df6dab8f28",
  "args": [],
  "numDeployments": 1,
  "solcInputHash": "c2d5092d345a3bddea3664dce986d267",
  "bytecode": "0x608060405234801561001057600080fd5b50336000806101000a81548173ffffffffffffffffffffffffffffffffffffffff021916908373ffffffffffffffffffffffffffffffffffffffff160217905550612244806100606000396000f3fe6080604052600436106100865760003560e01c80634ba1d6aa116100595780634ba1d6aa1461016f578063713d856b1461019a5780638da5cb5b146101d7578063e1a3e55c14610202578063ff68fa6e1461021e57610086565b80631c4e61d21461008b5780632b975b60146100b45780633fd2f7b5146100f15780634909b29b1461012e575b600080fd5b34801561009757600080fd5b506100b260048036038101906100ad91906116dd565b61025f565b005b3480156100c057600080fd5b506100db60048036038101906100d691906117f6565b61051b565b6040516100e89190611a06565b60405180910390f35b3480156100fd57600080fd5b50610118600480360381019061011391906117f6565b6107cf565b6040516101259190611a06565b60405180910390f35b34801561013a57600080fd5b5061015560048036038101906101509190611a28565b610a83565b604051610166959493929190611ad9565b60405180910390f35b34801561017b57600080fd5b50610184610c87565b6040516101919190611a06565b60405180910390f35b3480156101a657600080fd5b506101c160048036038101906101bc91906117f6565b610efc565b6040516101ce9190611b41565b60405180910390f35b3480156101e357600080fd5b506101ec610f14565b6040516101f99190611b5c565b60405180910390f35b61021c60048036038101906102179190611b77565b610f38565b005b34801561022a57600080fd5b5061024560048036038101906102409190611bd3565b611266565b604051610256959493929190611ad9565b60405180910390f35b60006040518060a001604052803373ffffffffffffffffffffffffffffffffffffffff168152602001868152602001858152602001848152602001838152509050600181908060018154018082558091505060019003906000526020600020906005020160009091909190915060008201518160000160006101000a81548173ffffffffffffffffffffffffffffffffffffffff021916908373ffffffffffffffffffffffffffffffffffffffff16021790555060208201518160010190816103289190611e0c565b50604082015181600201908161033e9190611e0c565b5060608201518160030190816103549190611e0c565b50608082015181600401555050600360003373ffffffffffffffffffffffffffffffffffffffff1673ffffffffffffffffffffffffffffffffffffffff16815260200190815260200160002081908060018154018082558091505060019003906000526020600020906005020160009091909190915060008201518160000160006101000a81548173ffffffffffffffffffffffffffffffffffffffff021916908373ffffffffffffffffffffffffffffffffffffffff16021790555060208201518160010190816104269190611e0c565b50604082015181600201908161043c9190611e0c565b5060608201518160030190816104529190611e0c565b50608082015181600401555050806002866040516104709190611f1a565b908152602001604051809103902060008201518160000160006101000a81548173ffffffffffffffffffffffffffffffffffffffff021916908373ffffffffffffffffffffffffffffffffffffffff16021790555060208201518160010190816104da9190611e0c565b5060408201518160020190816104f09190611e0c565b5060608201518160030190816105069190611e0c565b50608082015181600401559050505050505050565b6060600460008373ffffffffffffffffffffffffffffffffffffffff1673ffffffffffffffffffffffffffffffffffffffff168152602001908152602001600020805480602002602001604051908101604052809291908181526020016000905b828210156107c457838290600052602060002090600502016040518060a00160405290816000820160009054906101000a900473ffffffffffffffffffffffffffffffffffffffff1673ffffffffffffffffffffffffffffffffffffffff1673ffffffffffffffffffffffffffffffffffffffff16815260200160018201805461060590611c2f565b80601f016020809104026020016040519081016040528092919081815260200182805461063190611c2f565b801561067e5780601f106106535761010080835404028352916020019161067e565b820191906000526020600020905b81548152906001019060200180831161066157829003601f168201915b5050505050815260200160028201805461069790611c2f565b80601f01602080910402602001604051908101604052809291908181526020018280546106c390611c2f565b80156107105780601f106106e557610100808354040283529160200191610710565b820191906000526020600020905b8154815290600101906020018083116106f357829003601f168201915b5050505050815260200160038201805461072990611c2f565b80601f016020809104026020016040519081016040528092919081815260200182805461075590611c2f565b80156107a25780601f10610777576101008083540402835291602001916107a2565b820191906000526020600020905b81548152906001019060200180831161078557829003601f168201915b505050505081526020016004820154815250508152602001906001019061057c565b505050509050919050565b6060600360008373ffffffffffffffffffffffffffffffffffffffff1673ffffffffffffffffffffffffffffffffffffffff168152602001908152602001600020805480602002602001604051908101604052809291908181526020016000905b82821015610a7857838290600052602060002090600502016040518060a00160405290816000820160009054906101000a900473ffffffffffffffffffffffffffffffffffffffff1673ffffffffffffffffffffffffffffffffffffffff1673ffffffffffffffffffffffffffffffffffffffff1681526020016001820180546108b990611c2f565b80601f01602080910402602001604051908101604052809291908181526020018280546108e590611c2f565b80156109325780601f1061090757610100808354040283529160200191610932565b820191906000526020600020905b81548152906001019060200180831161091557829003601f168201915b5050505050815260200160028201805461094b90611c2f565b80601f016020809104026020016040519081016040528092919081815260200182805461097790611c2f565b80156109c45780601f10610999576101008083540402835291602001916109c4565b820191906000526020600020905b8154815290600101906020018083116109a757829003601f168201915b505050505081526020016003820180546109dd90611c2f565b80601f0160208091040260200160405190810160405280929190818152602001828054610a0990611c2f565b8015610a565780601f10610a2b57610100808354040283529160200191610a56565b820191906000526020600020905b815481529060010190602001808311610a3957829003601f168201915b5050505050815260200160048201548152505081526020019060010190610830565b505050509050919050565b6002818051602081018201805184825260208301602085012081835280955050505050506000915090508060000160009054906101000a900473ffffffffffffffffffffffffffffffffffffffff1690806001018054610ae290611c2f565b80601f0160208091040260200160405190810160405280929190818152602001828054610b0e90611c2f565b8015610b5b5780601f10610b3057610100808354040283529160200191610b5b565b820191906000526020600020905b815481529060010190602001808311610b3e57829003601f168201915b505050505090806002018054610b7090611c2f565b80601f0160208091040260200160405190810160405280929190818152602001828054610b9c90611c2f565b8015610be95780601f10610bbe57610100808354040283529160200191610be9565b820191906000526020600020905b815481529060010190602001808311610bcc57829003601f168201915b505050505090806003018054610bfe90611c2f565b80601f0160208091040260200160405190810160405280929190818152602001828054610c2a90611c2f565b8015610c775780601f10610c4c57610100808354040283529160200191610c77565b820191906000526020600020905b815481529060010190602001808311610c5a57829003601f168201915b5050505050908060040154905085565b60606001805480602002602001604051908101604052809291908181526020016000905b82821015610ef357838290600052602060002090600502016040518060a00160405290816000820160009054906101000a900473ffffffffffffffffffffffffffffffffffffffff1673ffffffffffffffffffffffffffffffffffffffff1673ffffffffffffffffffffffffffffffffffffffff168152602001600182018054610d3490611c2f565b80601f0160208091040260200160405190810160405280929190818152602001828054610d6090611c2f565b8015610dad5780601f10610d8257610100808354040283529160200191610dad565b820191906000526020600020905b815481529060010190602001808311610d9057829003601f168201915b50505050508152602001600282018054610dc690611c2f565b80601f0160208091040260200160405190810160405280929190818152602001828054610df290611c2f565b8015610e3f5780601f10610e1457610100808354040283529160200191610e3f565b820191906000526020600020905b815481529060010190602001808311610e2257829003601f168201915b50505050508152602001600382018054610e5890611c2f565b80601f0160208091040260200160405190810160405280929190818152602001828054610e8490611c2f565b8015610ed15780601f10610ea657610100808354040283529160200191610ed1565b820191906000526020600020905b815481529060010190602001808311610eb457829003601f168201915b5050505050815260200160048201548152505081526020019060010190610cab565b50505050905090565b60056020528060005260406000206000915090505481565b60008054906101000a900473ffffffffffffffffffffffffffffffffffffffff1681565b8073ffffffffffffffffffffffffffffffffffffffff16600283604051610f5f9190611f1a565b908152602001604051809103902060000160009054906101000a900473ffffffffffffffffffffffffffffffffffffffff1673ffffffffffffffffffffffffffffffffffffffff1614610fe7576040517f08c379a0000000000000000000000000000000000000000000000000000000008152600401610fde90611fa3565b60405180910390fd5b611011600283604051610ffa9190611f1a565b908152602001604051809103902060040154611464565b61101a34611464565b3460028360405161102b9190611f1a565b9081526020016040518091039020600401541461107d576040517f08c379a00000000000000000000000000000000000000000000000000000000081526004016110749061200f565b60405180910390fd5b60008173ffffffffffffffffffffffffffffffffffffffff16346040516110a390612060565b60006040518083038185875af1925050503d80600081146110e0576040519150601f19603f3d011682016040523d82523d6000602084013e6110e5565b606091505b5050905080611129576040517f08c379a0000000000000000000000000000000000000000000000000000000008152600401611120906120c1565b60405180910390fd5b600460003373ffffffffffffffffffffffffffffffffffffffff1673ffffffffffffffffffffffffffffffffffffffff1681526020019081526020016000206002846040516111789190611f1a565b908152602001604051809103902090806001815401808255809150506001900390600052602060002090600502016000909190919091506000820160009054906101000a900473ffffffffffffffffffffffffffffffffffffffff168160000160006101000a81548173ffffffffffffffffffffffffffffffffffffffff021916908373ffffffffffffffffffffffffffffffffffffffff1602179055506001820181600101908161122a91906120f7565b506002820181600201908161123f91906120f7565b506003820181600301908161125491906120f7565b50600482015481600401555050505050565b6001818154811061127657600080fd5b90600052602060002090600502016000915090508060000160009054906101000a900473ffffffffffffffffffffffffffffffffffffffff16908060010180546112bf90611c2f565b80601f01602080910402602001604051908101604052809291908181526020018280546112eb90611c2f565b80156113385780601f1061130d57610100808354040283529160200191611338565b820191906000526020600020905b81548152906001019060200180831161131b57829003601f168201915b50505050509080600201805461134d90611c2f565b80601f016020809104026020016040519081016040528092919081815260200182805461137990611c2f565b80156113c65780601f1061139b576101008083540402835291602001916113c6565b820191906000526020600020905b8154815290600101906020018083116113a957829003601f168201915b5050505050908060030180546113db90611c2f565b80601f016020809104026020016040519081016040528092919081815260200182805461140790611c2f565b80156114545780601f1061142957610100808354040283529160200191611454565b820191906000526020600020905b81548152906001019060200180831161143757829003601f168201915b5050505050908060040154905085565b6114fa816040516024016114789190611b41565b6040516020818303038152906040527ff82c50f1000000000000000000000000000000000000000000000000000000007bffffffffffffffffffffffffffffffffffffffffffffffffffffffff19166020820180517bffffffffffffffffffffffffffffffffffffffffffffffffffffffff83818316178352505050506114fd565b50565b6115148161150c611517611538565b63ffffffff16565b50565b60006a636f6e736f6c652e6c6f679050600080835160208501845afa505050565b611543819050919050565b61154b6121df565b565b6000604051905090565b600080fd5b600080fd5b600080fd5b600080fd5b6000601f19601f8301169050919050565b7f4e487b7100000000000000000000000000000000000000000000000000000000600052604160045260246000fd5b6115b48261156b565b810181811067ffffffffffffffff821117156115d3576115d261157c565b5b80604052505050565b60006115e661154d565b90506115f282826115ab565b919050565b600067ffffffffffffffff8211156116125761161161157c565b5b61161b8261156b565b9050602081019050919050565b82818337600083830152505050565b600061164a611645846115f7565b6115dc565b90508281526020810184848401111561166657611665611566565b5b611671848285611628565b509392505050565b600082601f83011261168e5761168d611561565b5b813561169e848260208601611637565b91505092915050565b6000819050919050565b6116ba816116a7565b81146116c557600080fd5b50565b6000813590506116d7816116b1565b92915050565b600080600080608085870312156116f7576116f6611557565b5b600085013567ffffffffffffffff8111156117155761171461155c565b5b61172187828801611679565b945050602085013567ffffffffffffffff8111156117425761174161155c565b5b61174e87828801611679565b935050604085013567ffffffffffffffff81111561176f5761176e61155c565b5b61177b87828801611679565b925050606061178c878288016116c8565b91505092959194509250565b600073ffffffffffffffffffffffffffffffffffffffff82169050919050565b60006117c382611798565b9050919050565b6117d3816117b8565b81146117de57600080fd5b50565b6000813590506117f0816117ca565b92915050565b60006020828403121561180c5761180b611557565b5b600061181a848285016117e1565b91505092915050565b600081519050919050565b600082825260208201905092915050565b6000819050602082019050919050565b611858816117b8565b82525050565b600081519050919050565b600082825260208201905092915050565b60005b8381101561189857808201518184015260208101905061187d565b60008484015250505050565b60006118af8261185e565b6118b98185611869565b93506118c981856020860161187a565b6118d28161156b565b840191505092915050565b6118e6816116a7565b82525050565b600060a083016000830151611904600086018261184f565b506020830151848203602086015261191c82826118a4565b9150506040830151848203604086015261193682826118a4565b9150506060830151848203606086015261195082826118a4565b915050608083015161196560808601826118dd565b508091505092915050565b600061197c83836118ec565b905092915050565b6000602082019050919050565b600061199c82611823565b6119a6818561182e565b9350836020820285016119b88561183f565b8060005b858110156119f457848403895281516119d58582611970565b94506119e083611984565b925060208a019950506001810190506119bc565b50829750879550505050505092915050565b60006020820190508181036000830152611a208184611991565b905092915050565b600060208284031215611a3e57611a3d611557565b5b600082013567ffffffffffffffff811115611a5c57611a5b61155c565b5b611a6884828501611679565b91505092915050565b611a7a816117b8565b82525050565b600082825260208201905092915050565b6000611a9c8261185e565b611aa68185611a80565b9350611ab681856020860161187a565b611abf8161156b565b840191505092915050565b611ad3816116a7565b82525050565b600060a082019050611aee6000830188611a71565b8181036020830152611b008187611a91565b90508181036040830152611b148186611a91565b90508181036060830152611b288185611a91565b9050611b376080830184611aca565b9695505050505050565b6000602082019050611b566000830184611aca565b92915050565b6000602082019050611b716000830184611a71565b92915050565b60008060408385031215611b8e57611b8d611557565b5b600083013567ffffffffffffffff811115611bac57611bab61155c565b5b611bb885828601611679565b9250506020611bc9858286016117e1565b9150509250929050565b600060208284031215611be957611be8611557565b5b6000611bf7848285016116c8565b91505092915050565b7f4e487b7100000000000000000000000000000000000000000000000000000000600052602260045260246000fd5b60006002820490506001821680611c4757607f821691505b602082108103611c5a57611c59611c00565b5b50919050565b60008190508160005260206000209050919050565b60006020601f8301049050919050565b600082821b905092915050565b600060088302611cc27fffffffffffffffffffffffffffffffffffffffffffffffffffffffffffffffff82611c85565b611ccc8683611c85565b95508019841693508086168417925050509392505050565b6000819050919050565b6000611d09611d04611cff846116a7565b611ce4565b6116a7565b9050919050565b6000819050919050565b611d2383611cee565b611d37611d2f82611d10565b848454611c92565b825550505050565b600090565b611d4c611d3f565b611d57818484611d1a565b505050565b5b81811015611d7b57611d70600082611d44565b600181019050611d5d565b5050565b601f821115611dc057611d9181611c60565b611d9a84611c75565b81016020851015611da9578190505b611dbd611db585611c75565b830182611d5c565b50505b505050565b600082821c905092915050565b6000611de360001984600802611dc5565b1980831691505092915050565b6000611dfc8383611dd2565b9150826002028217905092915050565b611e158261185e565b67ffffffffffffffff811115611e2e57611e2d61157c565b5b611e388254611c2f565b611e43828285611d7f565b600060209050601f831160018114611e765760008415611e64578287015190505b611e6e8582611df0565b865550611ed6565b601f198416611e8486611c60565b60005b82811015611eac57848901518255600182019150602085019450602081019050611e87565b86831015611ec95784890151611ec5601f891682611dd2565b8355505b6001600288020188555050505b505050505050565b600081905092915050565b6000611ef48261185e565b611efe8185611ede565b9350611f0e81856020860161187a565b80840191505092915050565b6000611f268284611ee9565b915081905092915050565b7f4974656d20776974682074686520676976656e206e616d6520646f6573206e6f60008201527f7420657869737400000000000000000000000000000000000000000000000000602082015250565b6000611f8d602783611a80565b9150611f9882611f31565b604082019050919050565b60006020820190508181036000830152611fbc81611f80565b9050919050565b7f6d697373696e6720736f6d652065746800000000000000000000000000000000600082015250565b6000611ff9601083611a80565b915061200482611fc3565b602082019050919050565b6000602082019050818103600083015261202881611fec565b9050919050565b600081905092915050565b50565b600061204a60008361202f565b91506120558261203a565b600082019050919050565b600061206b8261203d565b9150819050919050565b7f43616c6c204661696c6564000000000000000000000000000000000000000000600082015250565b60006120ab600b83611a80565b91506120b682612075565b602082019050919050565b600060208201905081810360008301526120da8161209e565b9050919050565b6000815490506120f081611c2f565b9050919050565b8181036121055750506121dd565b61210e826120e1565b67ffffffffffffffff8111156121275761212661157c565b5b6121318254611c2f565b61213c828285611d7f565b6000601f83116001811461216b5760008415612159578287015490505b6121638582611df0565b8655506121d6565b601f19841661217987611c60565b965061218486611c60565b60005b828110156121ac57848901548255600182019150600185019450602081019050612187565b868310156121c957848901546121c5601f891682611dd2565b8355505b6001600288020188555050505b5050505050505b565b7f4e487b7100000000000000000000000000000000000000000000000000000000600052605160045260246000fdfea2646970667358221220dcd24daa7e99d4ea89bb4e70049f0f97136d96a5fe160a82c7929df63030097a64736f6c63430008130033",
  "devdoc": {
    "kind": "dev",
    "methods": {},
    "version": 1
  },
  "userdoc": {
    "kind": "user",
    "methods": {},
    "version": 1
  },
  "storageLayout": {
    "storage": [
      {
        "astId": 4,
        "contract": "contracts/E-commerce.sol:E_commerce",
        "label": "owner",
        "offset": 0,
        "slot": "0",
        "type": "t_address"
      },
      {
        "astId": 25,
        "contract": "contracts/E-commerce.sol:E_commerce",
        "label": "allItems",
        "offset": 0,
        "slot": "1",
        "type": "t_array(t_struct(Item)15_storage)dyn_storage"
      },
      {
        "astId": 30,
        "contract": "contracts/E-commerce.sol:E_commerce",
        "label": "items",
        "offset": 0,
        "slot": "2",
        "type": "t_mapping(t_string_memory_ptr,t_struct(Item)15_storage)"
      },
      {
        "astId": 36,
        "contract": "contracts/E-commerce.sol:E_commerce",
        "label": "userItems",
        "offset": 0,
        "slot": "3",
        "type": "t_mapping(t_address,t_array(t_struct(Item)15_storage)dyn_storage)"
      },
      {
        "astId": 42,
        "contract": "contracts/E-commerce.sol:E_commerce",
        "label": "broughtItems",
        "offset": 0,
        "slot": "4",
        "type": "t_mapping(t_address,t_array(t_struct(Item)15_storage)dyn_storage)"
      },
      {
        "astId": 46,
        "contract": "contracts/E-commerce.sol:E_commerce",
        "label": "orderCount",
        "offset": 0,
        "slot": "5",
        "type": "t_mapping(t_address,t_uint256)"
      }
    ],
    "types": {
      "t_address": {
        "encoding": "inplace",
        "label": "address",
        "numberOfBytes": "20"
      },
      "t_array(t_struct(Item)15_storage)dyn_storage": {
        "base": "t_struct(Item)15_storage",
        "encoding": "dynamic_array",
        "label": "struct E_commerce.Item[]",
        "numberOfBytes": "32"
      },
      "t_mapping(t_address,t_array(t_struct(Item)15_storage)dyn_storage)": {
        "encoding": "mapping",
        "key": "t_address",
        "label": "mapping(address => struct E_commerce.Item[])",
        "numberOfBytes": "32",
        "value": "t_array(t_struct(Item)15_storage)dyn_storage"
      },
      "t_mapping(t_address,t_uint256)": {
        "encoding": "mapping",
        "key": "t_address",
        "label": "mapping(address => uint256)",
        "numberOfBytes": "32",
        "value": "t_uint256"
      },
      "t_mapping(t_string_memory_ptr,t_struct(Item)15_storage)": {
        "encoding": "mapping",
        "key": "t_string_memory_ptr",
        "label": "mapping(string => struct E_commerce.Item)",
        "numberOfBytes": "32",
        "value": "t_struct(Item)15_storage"
      },
      "t_string_memory_ptr": {
        "encoding": "bytes",
        "label": "string",
        "numberOfBytes": "32"
      },
      "t_string_storage": {
        "encoding": "bytes",
        "label": "string",
        "numberOfBytes": "32"
      },
      "t_struct(Item)15_storage": {
        "encoding": "inplace",
        "label": "struct E_commerce.Item",
        "members": [
          {
            "astId": 6,
            "contract": "contracts/E-commerce.sol:E_commerce",
            "label": "deployerAddress",
            "offset": 0,
            "slot": "0",
            "type": "t_address"
          },
          {
            "astId": 8,
            "contract": "contracts/E-commerce.sol:E_commerce",
            "label": "name",
            "offset": 0,
            "slot": "1",
            "type": "t_string_storage"
          },
          {
            "astId": 10,
            "contract": "contracts/E-commerce.sol:E_commerce",
            "label": "category",
            "offset": 0,
            "slot": "2",
            "type": "t_string_storage"
          },
          {
            "astId": 12,
            "contract": "contracts/E-commerce.sol:E_commerce",
            "label": "image",
            "offset": 0,
            "slot": "3",
            "type": "t_string_storage"
          },
          {
            "astId": 14,
            "contract": "contracts/E-commerce.sol:E_commerce",
            "label": "cost",
            "offset": 0,
            "slot": "4",
            "type": "t_uint256"
          }
        ],
        "numberOfBytes": "160"
      },
      "t_uint256": {
        "encoding": "inplace",
        "label": "uint256",
        "numberOfBytes": "32"
      }
    }
  }
}