{
  "address": "0x80A785F7Fb6B1463cB4c850dB0b16DB8B4ACD459",
  "abi": [
    {
      "inputs": [],
      "stateMutability": "nonpayable",
      "type": "constructor"
    },
    {
      "inputs": [
        {
          "internalType": "uint256",
          "name": "",
          "type": "uint256"
        }
      ],
      "name": "allItems",
      "outputs": [
        {
          "internalType": "address",
          "name": "deployerAddress",
          "type": "address"
        },
        {
          "internalType": "string",
          "name": "name",
          "type": "string"
        },
        {
          "internalType": "string",
          "name": "category",
          "type": "string"
        },
        {
          "internalType": "string",
          "name": "image",
          "type": "string"
        },
        {
          "internalType": "uint256",
          "name": "cost",
          "type": "uint256"
        }
      ],
      "stateMutability": "view",
      "type": "function"
    },
    {
      "inputs": [
        {
          "internalType": "string",
          "name": "name",
          "type": "string"
        },
        {
          "internalType": "address",
          "name": "reciverAdress",
          "type": "address"
        }
      ],
      "name": "buy",
      "outputs": [],
      "stateMutability": "payable",
      "type": "function"
    },
    {
      "inputs": [],
      "name": "getAllItems",
      "outputs": [
        {
          "components": [
            {
              "internalType": "address",
              "name": "deployerAddress",
              "type": "address"
            },
            {
              "internalType": "string",
              "name": "name",
              "type": "string"
            },
            {
              "internalType": "string",
              "name": "category",
              "type": "string"
            },
            {
              "internalType": "string",
              "name": "image",
              "type": "string"
            },
            {
              "internalType": "uint256",
              "name": "cost",
              "type": "uint256"
            }
          ],
          "internalType": "struct E_commerce.Item[]",
          "name": "",
          "type": "tuple[]"
        }
      ],
      "stateMutability": "view",
      "type": "function"
    },
    {
      "inputs": [
        {
          "internalType": "address",
          "name": "user",
          "type": "address"
        }
      ],
      "name": "getUserItemList",
      "outputs": [
        {
          "components": [
            {
              "internalType": "address",
              "name": "deployerAddress",
              "type": "address"
            },
            {
              "internalType": "string",
              "name": "name",
              "type": "string"
            },
            {
              "internalType": "string",
              "name": "category",
              "type": "string"
            },
            {
              "internalType": "string",
              "name": "image",
              "type": "string"
            },
            {
              "internalType": "uint256",
              "name": "cost",
              "type": "uint256"
            }
          ],
          "internalType": "struct E_commerce.Item[]",
          "name": "",
          "type": "tuple[]"
        }
      ],
      "stateMutability": "view",
      "type": "function"
    },
    {
      "inputs": [
        {
          "internalType": "address",
          "name": "user",
          "type": "address"
        }
      ],
      "name": "getUserbroughtItems",
      "outputs": [
        {
          "components": [
            {
              "internalType": "address",
              "name": "deployerAddress",
              "type": "address"
            },
            {
              "internalType": "string",
              "name": "name",
              "type": "string"
            },
            {
              "internalType": "string",
              "name": "category",
              "type": "string"
            },
            {
              "internalType": "string",
              "name": "image",
              "type": "string"
            },
            {
              "internalType": "uint256",
              "name": "cost",
              "type": "uint256"
            }
          ],
          "internalType": "struct E_commerce.Item[]",
          "name": "",
          "type": "tuple[]"
        }
      ],
      "stateMutability": "view",
      "type": "function"
    },
    {
      "inputs": [
        {
          "internalType": "string",
          "name": "",
          "type": "string"
        }
      ],
      "name": "items",
      "outputs": [
        {
          "internalType": "address",
          "name": "deployerAddress",
          "type": "address"
        },
        {
          "internalType": "string",
          "name": "name",
          "type": "string"
        },
        {
          "internalType": "string",
          "name": "category",
          "type": "string"
        },
        {
          "internalType": "string",
          "name": "image",
          "type": "string"
        },
        {
          "internalType": "uint256",
          "name": "cost",
          "type": "uint256"
        }
      ],
      "stateMutability": "view",
      "type": "function"
    },
    {
      "inputs": [
        {
          "internalType": "string",
          "name": "_name",
          "type": "string"
        },
        {
          "internalType": "string",
          "name": "_category",
          "type": "string"
        },
        {
          "internalType": "string",
          "name": "_image",
          "type": "string"
        },
        {
          "internalType": "uint256",
          "name": "_cost",
          "type": "uint256"
        }
      ],
      "name": "list",
      "outputs": [],
      "stateMutability": "nonpayable",
      "type": "function"
    },
    {
      "inputs": [
        {
          "internalType": "address",
          "name": "",
          "type": "address"
        }
      ],
      "name": "orderCount",
      "outputs": [
        {
          "internalType": "uint256",
          "name": "",
          "type": "uint256"
        }
      ],
      "stateMutability": "view",
      "type": "function"
    },
    {
      "inputs": [],
      "name": "owner",
      "outputs": [
        {
          "internalType": "address",
          "name": "",
          "type": "address"
        }
      ],
      "stateMutability": "view",
      "type": "function"
    }
  ],
  "transactionHash": "0x14bc00e0bdd0553d6563332db837a9e8880eb5b4073ad7bb85d877cc931674e6",
  "args": [],
  "numDeployments": 5,
  "solcInputHash": "b95db891a3f0c2ac7e63ead2c8318171",
  "bytecode": "0x608060405234801561001057600080fd5b50336000806101000a81548173ffffffffffffffffffffffffffffffffffffffff021916908373ffffffffffffffffffffffffffffffffffffffff1602179055506120f9806100606000396000f3fe6080604052600436106100865760003560e01c80634ba1d6aa116100595780634ba1d6aa1461016f578063713d856b1461019a5780638da5cb5b146101d7578063e1a3e55c14610202578063ff68fa6e1461021e57610086565b80631c4e61d21461008b5780632b975b60146100b45780633fd2f7b5146100f15780634909b29b1461012e575b600080fd5b34801561009757600080fd5b506100b260048036038101906100ad91906115c1565b61025f565b005b3480156100c057600080fd5b506100db60048036038101906100d691906116da565b61051b565b6040516100e891906118ea565b60405180910390f35b3480156100fd57600080fd5b50610118600480360381019061011391906116da565b6107cf565b60405161012591906118ea565b60405180910390f35b34801561013a57600080fd5b506101556004803603810190610150919061190c565b610a83565b6040516101669594939291906119bd565b60405180910390f35b34801561017b57600080fd5b50610184610c87565b60405161019191906118ea565b60405180910390f35b3480156101a657600080fd5b506101c160048036038101906101bc91906116da565b610efc565b6040516101ce9190611a25565b60405180910390f35b3480156101e357600080fd5b506101ec610f14565b6040516101f99190611a40565b60405180910390f35b61021c60048036038101906102179190611a5b565b610f38565b005b34801561022a57600080fd5b5061024560048036038101906102409190611ab7565b611233565b6040516102569594939291906119bd565b60405180910390f35b60006040518060a001604052803373ffffffffffffffffffffffffffffffffffffffff168152602001868152602001858152602001848152602001838152509050600181908060018154018082558091505060019003906000526020600020906005020160009091909190915060008201518160000160006101000a81548173ffffffffffffffffffffffffffffffffffffffff021916908373ffffffffffffffffffffffffffffffffffffffff16021790555060208201518160010190816103289190611cf0565b50604082015181600201908161033e9190611cf0565b5060608201518160030190816103549190611cf0565b50608082015181600401555050600360003373ffffffffffffffffffffffffffffffffffffffff1673ffffffffffffffffffffffffffffffffffffffff16815260200190815260200160002081908060018154018082558091505060019003906000526020600020906005020160009091909190915060008201518160000160006101000a81548173ffffffffffffffffffffffffffffffffffffffff021916908373ffffffffffffffffffffffffffffffffffffffff16021790555060208201518160010190816104269190611cf0565b50604082015181600201908161043c9190611cf0565b5060608201518160030190816104529190611cf0565b50608082015181600401555050806002866040516104709190611dfe565b908152602001604051809103902060008201518160000160006101000a81548173ffffffffffffffffffffffffffffffffffffffff021916908373ffffffffffffffffffffffffffffffffffffffff16021790555060208201518160010190816104da9190611cf0565b5060408201518160020190816104f09190611cf0565b5060608201518160030190816105069190611cf0565b50608082015181600401559050505050505050565b6060600460008373ffffffffffffffffffffffffffffffffffffffff1673ffffffffffffffffffffffffffffffffffffffff168152602001908152602001600020805480602002602001604051908101604052809291908181526020016000905b828210156107c457838290600052602060002090600502016040518060a00160405290816000820160009054906101000a900473ffffffffffffffffffffffffffffffffffffffff1673ffffffffffffffffffffffffffffffffffffffff1673ffffffffffffffffffffffffffffffffffffffff16815260200160018201805461060590611b13565b80601f016020809104026020016040519081016040528092919081815260200182805461063190611b13565b801561067e5780601f106106535761010080835404028352916020019161067e565b820191906000526020600020905b81548152906001019060200180831161066157829003601f168201915b5050505050815260200160028201805461069790611b13565b80601f01602080910402602001604051908101604052809291908181526020018280546106c390611b13565b80156107105780601f106106e557610100808354040283529160200191610710565b820191906000526020600020905b8154815290600101906020018083116106f357829003601f168201915b5050505050815260200160038201805461072990611b13565b80601f016020809104026020016040519081016040528092919081815260200182805461075590611b13565b80156107a25780601f10610777576101008083540402835291602001916107a2565b820191906000526020600020905b81548152906001019060200180831161078557829003601f168201915b505050505081526020016004820154815250508152602001906001019061057c565b505050509050919050565b6060600360008373ffffffffffffffffffffffffffffffffffffffff1673ffffffffffffffffffffffffffffffffffffffff168152602001908152602001600020805480602002602001604051908101604052809291908181526020016000905b82821015610a7857838290600052602060002090600502016040518060a00160405290816000820160009054906101000a900473ffffffffffffffffffffffffffffffffffffffff1673ffffffffffffffffffffffffffffffffffffffff1673ffffffffffffffffffffffffffffffffffffffff1681526020016001820180546108b990611b13565b80601f01602080910402602001604051908101604052809291908181526020018280546108e590611b13565b80156109325780601f1061090757610100808354040283529160200191610932565b820191906000526020600020905b81548152906001019060200180831161091557829003601f168201915b5050505050815260200160028201805461094b90611b13565b80601f016020809104026020016040519081016040528092919081815260200182805461097790611b13565b80156109c45780601f10610999576101008083540402835291602001916109c4565b820191906000526020600020905b8154815290600101906020018083116109a757829003601f168201915b505050505081526020016003820180546109dd90611b13565b80601f0160208091040260200160405190810160405280929190818152602001828054610a0990611b13565b8015610a565780601f10610a2b57610100808354040283529160200191610a56565b820191906000526020600020905b815481529060010190602001808311610a3957829003601f168201915b5050505050815260200160048201548152505081526020019060010190610830565b505050509050919050565b6002818051602081018201805184825260208301602085012081835280955050505050506000915090508060000160009054906101000a900473ffffffffffffffffffffffffffffffffffffffff1690806001018054610ae290611b13565b80601f0160208091040260200160405190810160405280929190818152602001828054610b0e90611b13565b8015610b5b5780601f10610b3057610100808354040283529160200191610b5b565b820191906000526020600020905b815481529060010190602001808311610b3e57829003601f168201915b505050505090806002018054610b7090611b13565b80601f0160208091040260200160405190810160405280929190818152602001828054610b9c90611b13565b8015610be95780601f10610bbe57610100808354040283529160200191610be9565b820191906000526020600020905b815481529060010190602001808311610bcc57829003601f168201915b505050505090806003018054610bfe90611b13565b80601f0160208091040260200160405190810160405280929190818152602001828054610c2a90611b13565b8015610c775780601f10610c4c57610100808354040283529160200191610c77565b820191906000526020600020905b815481529060010190602001808311610c5a57829003601f168201915b5050505050908060040154905085565b60606001805480602002602001604051908101604052809291908181526020016000905b82821015610ef357838290600052602060002090600502016040518060a00160405290816000820160009054906101000a900473ffffffffffffffffffffffffffffffffffffffff1673ffffffffffffffffffffffffffffffffffffffff1673ffffffffffffffffffffffffffffffffffffffff168152602001600182018054610d3490611b13565b80601f0160208091040260200160405190810160405280929190818152602001828054610d6090611b13565b8015610dad5780601f10610d8257610100808354040283529160200191610dad565b820191906000526020600020905b815481529060010190602001808311610d9057829003601f168201915b50505050508152602001600282018054610dc690611b13565b80601f0160208091040260200160405190810160405280929190818152602001828054610df290611b13565b8015610e3f5780601f10610e1457610100808354040283529160200191610e3f565b820191906000526020600020905b815481529060010190602001808311610e2257829003601f168201915b50505050508152602001600382018054610e5890611b13565b80601f0160208091040260200160405190810160405280929190818152602001828054610e8490611b13565b8015610ed15780601f10610ea657610100808354040283529160200191610ed1565b820191906000526020600020905b815481529060010190602001808311610eb457829003601f168201915b5050505050815260200160048201548152505081526020019060010190610cab565b50505050905090565b60056020528060005260406000206000915090505481565b60008054906101000a900473ffffffffffffffffffffffffffffffffffffffff1681565b8073ffffffffffffffffffffffffffffffffffffffff16600283604051610f5f9190611dfe565b908152602001604051809103902060000160009054906101000a900473ffffffffffffffffffffffffffffffffffffffff1673ffffffffffffffffffffffffffffffffffffffff1614610fe7576040517f08c379a0000000000000000000000000000000000000000000000000000000008152600401610fde90611e87565b60405180910390fd5b34600283604051610ff89190611dfe565b9081526020016040518091039020600401541461104a576040517f08c379a000000000000000000000000000000000000000000000000000000000815260040161104190611ef3565b60405180910390fd5b60008173ffffffffffffffffffffffffffffffffffffffff163460405161107090611f44565b60006040518083038185875af1925050503d80600081146110ad576040519150601f19603f3d011682016040523d82523d6000602084013e6110b2565b606091505b50509050806110f6576040517f08c379a00000000000000000000000000000000000000000000000000000000081526004016110ed90611fa5565b60405180910390fd5b600460003373ffffffffffffffffffffffffffffffffffffffff1673ffffffffffffffffffffffffffffffffffffffff1681526020019081526020016000206002846040516111459190611dfe565b908152602001604051809103902090806001815401808255809150506001900390600052602060002090600502016000909190919091506000820160009054906101000a900473ffffffffffffffffffffffffffffffffffffffff168160000160006101000a81548173ffffffffffffffffffffffffffffffffffffffff021916908373ffffffffffffffffffffffffffffffffffffffff160217905550600182018160010190816111f79190611fdb565b506002820181600201908161120c9190611fdb565b50600382018160030190816112219190611fdb565b50600482015481600401555050505050565b6001818154811061124357600080fd5b90600052602060002090600502016000915090508060000160009054906101000a900473ffffffffffffffffffffffffffffffffffffffff169080600101805461128c90611b13565b80601f01602080910402602001604051908101604052809291908181526020018280546112b890611b13565b80156113055780601f106112da57610100808354040283529160200191611305565b820191906000526020600020905b8154815290600101906020018083116112e857829003601f168201915b50505050509080600201805461131a90611b13565b80601f016020809104026020016040519081016040528092919081815260200182805461134690611b13565b80156113935780601f1061136857610100808354040283529160200191611393565b820191906000526020600020905b81548152906001019060200180831161137657829003601f168201915b5050505050908060030180546113a890611b13565b80601f01602080910402602001604051908101604052809291908181526020018280546113d490611b13565b80156114215780601f106113f657610100808354040283529160200191611421565b820191906000526020600020905b81548152906001019060200180831161140457829003601f168201915b5050505050908060040154905085565b6000604051905090565b600080fd5b600080fd5b600080fd5b600080fd5b6000601f19601f8301169050919050565b7f4e487b7100000000000000000000000000000000000000000000000000000000600052604160045260246000fd5b6114988261144f565b810181811067ffffffffffffffff821117156114b7576114b6611460565b5b80604052505050565b60006114ca611431565b90506114d6828261148f565b919050565b600067ffffffffffffffff8211156114f6576114f5611460565b5b6114ff8261144f565b9050602081019050919050565b82818337600083830152505050565b600061152e611529846114db565b6114c0565b90508281526020810184848401111561154a5761154961144a565b5b61155584828561150c565b509392505050565b600082601f83011261157257611571611445565b5b813561158284826020860161151b565b91505092915050565b6000819050919050565b61159e8161158b565b81146115a957600080fd5b50565b6000813590506115bb81611595565b92915050565b600080600080608085870312156115db576115da61143b565b5b600085013567ffffffffffffffff8111156115f9576115f8611440565b5b6116058782880161155d565b945050602085013567ffffffffffffffff81111561162657611625611440565b5b6116328782880161155d565b935050604085013567ffffffffffffffff81111561165357611652611440565b5b61165f8782880161155d565b9250506060611670878288016115ac565b91505092959194509250565b600073ffffffffffffffffffffffffffffffffffffffff82169050919050565b60006116a78261167c565b9050919050565b6116b78161169c565b81146116c257600080fd5b50565b6000813590506116d4816116ae565b92915050565b6000602082840312156116f0576116ef61143b565b5b60006116fe848285016116c5565b91505092915050565b600081519050919050565b600082825260208201905092915050565b6000819050602082019050919050565b61173c8161169c565b82525050565b600081519050919050565b600082825260208201905092915050565b60005b8381101561177c578082015181840152602081019050611761565b60008484015250505050565b600061179382611742565b61179d818561174d565b93506117ad81856020860161175e565b6117b68161144f565b840191505092915050565b6117ca8161158b565b82525050565b600060a0830160008301516117e86000860182611733565b50602083015184820360208601526118008282611788565b9150506040830151848203604086015261181a8282611788565b915050606083015184820360608601526118348282611788565b915050608083015161184960808601826117c1565b508091505092915050565b600061186083836117d0565b905092915050565b6000602082019050919050565b600061188082611707565b61188a8185611712565b93508360208202850161189c85611723565b8060005b858110156118d857848403895281516118b98582611854565b94506118c483611868565b925060208a019950506001810190506118a0565b50829750879550505050505092915050565b600060208201905081810360008301526119048184611875565b905092915050565b6000602082840312156119225761192161143b565b5b600082013567ffffffffffffffff8111156119405761193f611440565b5b61194c8482850161155d565b91505092915050565b61195e8161169c565b82525050565b600082825260208201905092915050565b600061198082611742565b61198a8185611964565b935061199a81856020860161175e565b6119a38161144f565b840191505092915050565b6119b78161158b565b82525050565b600060a0820190506119d26000830188611955565b81810360208301526119e48187611975565b905081810360408301526119f88186611975565b90508181036060830152611a0c8185611975565b9050611a1b60808301846119ae565b9695505050505050565b6000602082019050611a3a60008301846119ae565b92915050565b6000602082019050611a556000830184611955565b92915050565b60008060408385031215611a7257611a7161143b565b5b600083013567ffffffffffffffff811115611a9057611a8f611440565b5b611a9c8582860161155d565b9250506020611aad858286016116c5565b9150509250929050565b600060208284031215611acd57611acc61143b565b5b6000611adb848285016115ac565b91505092915050565b7f4e487b7100000000000000000000000000000000000000000000000000000000600052602260045260246000fd5b60006002820490506001821680611b2b57607f821691505b602082108103611b3e57611b3d611ae4565b5b50919050565b60008190508160005260206000209050919050565b60006020601f8301049050919050565b600082821b905092915050565b600060088302611ba67fffffffffffffffffffffffffffffffffffffffffffffffffffffffffffffffff82611b69565b611bb08683611b69565b95508019841693508086168417925050509392505050565b6000819050919050565b6000611bed611be8611be38461158b565b611bc8565b61158b565b9050919050565b6000819050919050565b611c0783611bd2565b611c1b611c1382611bf4565b848454611b76565b825550505050565b600090565b611c30611c23565b611c3b818484611bfe565b505050565b5b81811015611c5f57611c54600082611c28565b600181019050611c41565b5050565b601f821115611ca457611c7581611b44565b611c7e84611b59565b81016020851015611c8d578190505b611ca1611c9985611b59565b830182611c40565b50505b505050565b600082821c905092915050565b6000611cc760001984600802611ca9565b1980831691505092915050565b6000611ce08383611cb6565b9150826002028217905092915050565b611cf982611742565b67ffffffffffffffff811115611d1257611d11611460565b5b611d1c8254611b13565b611d27828285611c63565b600060209050601f831160018114611d5a5760008415611d48578287015190505b611d528582611cd4565b865550611dba565b601f198416611d6886611b44565b60005b82811015611d9057848901518255600182019150602085019450602081019050611d6b565b86831015611dad5784890151611da9601f891682611cb6565b8355505b6001600288020188555050505b505050505050565b600081905092915050565b6000611dd882611742565b611de28185611dc2565b9350611df281856020860161175e565b80840191505092915050565b6000611e0a8284611dcd565b915081905092915050565b7f4974656d20776974682074686520676976656e206e616d6520646f6573206e6f60008201527f7420657869737400000000000000000000000000000000000000000000000000602082015250565b6000611e71602783611964565b9150611e7c82611e15565b604082019050919050565b60006020820190508181036000830152611ea081611e64565b9050919050565b7f6d697373696e6720736f6d652065746800000000000000000000000000000000600082015250565b6000611edd601083611964565b9150611ee882611ea7565b602082019050919050565b60006020820190508181036000830152611f0c81611ed0565b9050919050565b600081905092915050565b50565b6000611f2e600083611f13565b9150611f3982611f1e565b600082019050919050565b6000611f4f82611f21565b9150819050919050565b7f43616c6c204661696c6564000000000000000000000000000000000000000000600082015250565b6000611f8f600b83611964565b9150611f9a82611f59565b602082019050919050565b60006020820190508181036000830152611fbe81611f82565b9050919050565b600081549050611fd481611b13565b9050919050565b818103611fe95750506120c1565b611ff282611fc5565b67ffffffffffffffff81111561200b5761200a611460565b5b6120158254611b13565b612020828285611c63565b6000601f83116001811461204f576000841561203d578287015490505b6120478582611cd4565b8655506120ba565b601f19841661205d87611b44565b965061206886611b44565b60005b828110156120905784890154825560018201915060018501945060208101905061206b565b868310156120ad57848901546120a9601f891682611cb6565b8355505b6001600288020188555050505b5050505050505b56fea2646970667358221220d466fde6503eb8d58229aac1bb3e35e50fd43a0fd7b23da2e81d0d987243b29364736f6c63430008130033",
  "devdoc": {
    "kind": "dev",
    "methods": {},
    "version": 1
  },
  "userdoc": {
    "kind": "user",
    "methods": {},
    "version": 1
  },
  "storageLayout": {
    "storage": [
      {
        "astId": 3,
        "contract": "contracts/E-commerce.sol:E_commerce",
        "label": "owner",
        "offset": 0,
        "slot": "0",
        "type": "t_address"
      },
      {
        "astId": 24,
        "contract": "contracts/E-commerce.sol:E_commerce",
        "label": "allItems",
        "offset": 0,
        "slot": "1",
        "type": "t_array(t_struct(Item)14_storage)dyn_storage"
      },
      {
        "astId": 29,
        "contract": "contracts/E-commerce.sol:E_commerce",
        "label": "items",
        "offset": 0,
        "slot": "2",
        "type": "t_mapping(t_string_memory_ptr,t_struct(Item)14_storage)"
      },
      {
        "astId": 35,
        "contract": "contracts/E-commerce.sol:E_commerce",
        "label": "userItems",
        "offset": 0,
        "slot": "3",
        "type": "t_mapping(t_address,t_array(t_struct(Item)14_storage)dyn_storage)"
      },
      {
        "astId": 41,
        "contract": "contracts/E-commerce.sol:E_commerce",
        "label": "broughtItems",
        "offset": 0,
        "slot": "4",
        "type": "t_mapping(t_address,t_array(t_struct(Item)14_storage)dyn_storage)"
      },
      {
        "astId": 45,
        "contract": "contracts/E-commerce.sol:E_commerce",
        "label": "orderCount",
        "offset": 0,
        "slot": "5",
        "type": "t_mapping(t_address,t_uint256)"
      }
    ],
    "types": {
      "t_address": {
        "encoding": "inplace",
        "label": "address",
        "numberOfBytes": "20"
      },
      "t_array(t_struct(Item)14_storage)dyn_storage": {
        "base": "t_struct(Item)14_storage",
        "encoding": "dynamic_array",
        "label": "struct E_commerce.Item[]",
        "numberOfBytes": "32"
      },
      "t_mapping(t_address,t_array(t_struct(Item)14_storage)dyn_storage)": {
        "encoding": "mapping",
        "key": "t_address",
        "label": "mapping(address => struct E_commerce.Item[])",
        "numberOfBytes": "32",
        "value": "t_array(t_struct(Item)14_storage)dyn_storage"
      },
      "t_mapping(t_address,t_uint256)": {
        "encoding": "mapping",
        "key": "t_address",
        "label": "mapping(address => uint256)",
        "numberOfBytes": "32",
        "value": "t_uint256"
      },
      "t_mapping(t_string_memory_ptr,t_struct(Item)14_storage)": {
        "encoding": "mapping",
        "key": "t_string_memory_ptr",
        "label": "mapping(string => struct E_commerce.Item)",
        "numberOfBytes": "32",
        "value": "t_struct(Item)14_storage"
      },
      "t_string_memory_ptr": {
        "encoding": "bytes",
        "label": "string",
        "numberOfBytes": "32"
      },
      "t_string_storage": {
        "encoding": "bytes",
        "label": "string",
        "numberOfBytes": "32"
      },
      "t_struct(Item)14_storage": {
        "encoding": "inplace",
        "label": "struct E_commerce.Item",
        "members": [
          {
            "astId": 5,
            "contract": "contracts/E-commerce.sol:E_commerce",
            "label": "deployerAddress",
            "offset": 0,
            "slot": "0",
            "type": "t_address"
          },
          {
            "astId": 7,
            "contract": "contracts/E-commerce.sol:E_commerce",
            "label": "name",
            "offset": 0,
            "slot": "1",
            "type": "t_string_storage"
          },
          {
            "astId": 9,
            "contract": "contracts/E-commerce.sol:E_commerce",
            "label": "category",
            "offset": 0,
            "slot": "2",
            "type": "t_string_storage"
          },
          {
            "astId": 11,
            "contract": "contracts/E-commerce.sol:E_commerce",
            "label": "image",
            "offset": 0,
            "slot": "3",
            "type": "t_string_storage"
          },
          {
            "astId": 13,
            "contract": "contracts/E-commerce.sol:E_commerce",
            "label": "cost",
            "offset": 0,
            "slot": "4",
            "type": "t_uint256"
          }
        ],
        "numberOfBytes": "160"
      },
      "t_uint256": {
        "encoding": "inplace",
        "label": "uint256",
        "numberOfBytes": "32"
      }
    }
  }
}